{
  "_format": "hh-sol-artifact-1",
  "contractName": "Test1Facet",
  "sourceName": "contracts/facets/Test1Facet.sol",
  "abi": [
    {
      "inputs": [],
      "name": "balanceOf",
      "outputs": [
        {
          "internalType": "uint256",
          "name": "x",
          "type": "uint256"
        }
      ],
      "stateMutability": "view",
      "type": "function"
    }
  ],
  "bytecode": "0x608060405234801561001057600080fd5b5060ee8061001f6000396000f3fe6080604052348015600f57600080fd5b506004361060285760003560e01c8063722713f714602d575b600080fd5b60336045565b60405190815260200160405180910390f35b600019604f816052565b90565b609481604051602401606691815260200190565b60408051601f198184030181529190526020810180516001600160e01b031663f5b1bba960e01b1790526097565b50565b80516a636f6e736f6c652e6c6f67602083016000808483855afa505050505056fea26469706673582212206fdba25d5c7d8b2d77022806b39c20310f2e5165fcb925128a8048ef90e01e0164736f6c63430008040033",
  "linkReferences": {},
  "deployedLinkReferences": {}
}